:100000000C941C080C942E080C942E080C942E08AA
:100010000C942E080C94F7310C942E080C94B1110A
:100020000C942E080C942E080C94132A0C94DB319B
:100030000C94E9310C94ED290C942E080C942E08A4
:100040000C94B5310C942E080C942E080C942E08A8
:100050000C942E080C94B2110C942E080C942E08BB
:10006000FDC70000FBC70000370E390E3D0E470EDE
:10007000450E410E410E430E4D0E4D0EE62FF72F4D
:10008000903009F49395E5B8C4B8B7EFB0937A000F
:10009000A5E0A0937B00A8E0A093810010928000CF
:1000A000AFEFA0938500A0938400A6E0A093360054
:1000B00010928B0010928A00B6E0AFE7A91B51E0C6
:1000C000392F36302AF0A058B94F53953650F9CF12
:1000D000B0938900A0938800A0917A00A4FFFCCF80
:1000E000B7EBB0937A00A2E0A0936F00A9E0A093D1
:1000F000810062E0A0E0A0937B00A1E0A093530008
:100100008895E5B8C4B884FF19C0A3E4AA95F1F7AF
:10011000EF93FF93E7B1F8B1A4E0C2FCA2E0C0FC0A
:10012000A1E0BF2FBA2BAE2BB8B904B9A7B9E7B974
:10013000F8B9FF91EF910AC00C947D00A7E400008C
:10014000AA95F1F725B9E5B8000004B9A09184009B
:10015000A0918500B0918900A395AB1768F7A09195
:100160007A00A4FFF3CFB7EBB0937A006A9571F7EA
:100170006091780070917900308186FD630F619302
:10018000308186FD731F80FF7193652F4A9579F743
:1001900010926F0010928100B7E0B0937A0008953A
:1001A000D401CD01C60118000720080808F8000096
:1001B000002060A03FA06020020202FF02020210A5
:1001C00010101F000000050842818989760508C2C9
:1001D000A19189860508000402FF0010100508F8A7
:1001E00078385888091003081C3E7F0D080710FF57
:1001F000818181F1E1C1FF4040404743410D080149
:1002000010FFFF11080310F1E1C14743410E000840
:10021000202121122060E0E0E0FEFE040201000146
:10022000037F7F21C2C4C4C040948400070301023D
:10023000040E080210FEFE7F7F0000000011000582
:10024000202060E0E0E00201000103C2C4C4C0401D
:100250000703010204010410090A0C4269139A61A0
:100260009B69927079999F652120126F9298FF97F0
:10027000619E79639F989F98209A619B699270799B
:1002800093619D9DA72097619C9A9D699FA4FF9F64
:100290007098209A6F9D9F619A9F98FF54502D31BE
:1002A0003233209F61FF9D619F98639D699FA420C9
:1002B0009A9D6F9E9A79FF2254455354222E20888E
:1002C00069139F93657013699FA420506596989C4D
:1002D000FF63619C6F9F65639F79201665FF706166
:1002E00097FF9D61969C699FA420225445535422F8
:1002F000FF939E706F136F93962032632EFF506FA3
:1003000097699C9A9D699FA4209A6F9D9F619A9F6F
:1003100098FF9E69639BA7209E6F9369136F9C9BB8
:10032000659D9DA7202249976F9BA71569A721224C
:10033000208869139A9BA6A0699FA4FFA79A696366
:100340002D9D9899FF9A6F9D13659D63619F6F70B6
:100350002092699BA4A165203130306E4620136F36
:1003600020545031209F6120545033209A6F9B9825
:10037000209E6F9369136F9C9B659D9DA73A2022D9
:100380003108030833FF3E3130306E462220936936
:10039000136F9270619661659FA463A72E20887089
:1003A0006F9470619C79209F6120136F9A799C658E
:1003B0009D9F611569A6201398932E209D6120684A
:1003C0007474703A2F2F206D696B726F636F6E7447
:1003D000726F6C6C65722E206E65742F7472616E14
:1003E000736973746F72207465737465722000B9D9
:1003F00003870358032E030703E402C302A4028801
:10040000020000140029003E00530069008000979C
:1004100000AE00C600DF00F80012012D01490165A1
:10042000018201A001BE01DE01FF01210244026838
:10043000028E02B502DE020903350364039403C889
:1004400003FE0337047304B404F90443059305EA77
:10045000054906B3062907AE074808FF08DE09FD6F
:100460000A930C480F991B000000000000000000D8
:10047000000000000000001E2121211200807F00EA
:1004800000007E4A4A4A34000000000000FC402080
:100490001008040201000000010101010101010135
:1004A00001010101017F0488D0E0F0F800000000A4
:1004B0000000000000000000000000000000FC94AC
:1004C000948400000102FC00000000000000000015
:1004D0000000001E21212112E0C0804020100F00EA
:1004E0000000C020202040000000FC00009E9E0470
:1004F00003030303020000002020232425252320DA
:1005000020203F00007B7B2142840480C00000004B
:100510000000000000000000000000FC9494840033
:10052000040607070708F0000000000000000000B4
:1005300000000000803F2121120C00000000FF009D
:100540000000F0084848C80000FE0000E7818181F3
:10055000C1E1F18181810100202020212121202081
:10056000203F0000F340404041434740407FC000EF
:10057000000000000000000000000000004894940B
:10058000946400000000FF00000000000000000074
:10059000000000000000003F2121120C0000FF00BD
:1005A0000000F0084848D0000000000000FEFE04F3
:1005B00004040404040407000808080909090808D9
:1005C0007F3E1C08087F7F20202020202020E00084
:1005D00000000000000000000000000000000048D3
:1005E000949494640000FF000000000000000000EC
:1005F0000000FF003C0A090A3C002231292926009C
:100600000082868E9EBEFEFEBEDEEFF6FAFEFEFA8B
:10061000F2E2C28200000008080804027984A4A45F
:100620006800FF0000000000000000000000000063
:1006300000000000000000000000FF0000F028247F
:1006400028F0001008FC000000000000000000007E
:1006500000003C0A090A3C00FF0000000000000006
:100660000000000000000000000000040C1C3C7CA6
:10067000FF7C3C1C0C040000000000009EA1A9A906
:100680009A804323130B0703FF03030303030300B1
:10069000000000000000000000007884848448000E
:1006A000FF000000000000000000F00804E2110953
:1006B00009090909090909091121C2040810E00002
:1006C0000000010204040700000000008040201028
:1006D000884423100804030000000000000000000C
:1006E0000000FE0100FC020100000000000000000C
:1006F0000000000000000000000079494979000076
:100700000000000000000040F0101010F040000158
:10071000010101010040F8F0E040F8400003010051
:1007200000030040F840E0F0F8400003000001033F
:100730000040FCFC00FCFC4000070700070700E04D
:10074000101010E000000407000704000000F8008B
:1007500000F000000E01020103020008080808086A
:10076000F8400202020202030040F80808080808E4
:1007700000030202020202404040404040400000AC
:1007800000000000004040C00000800000000102A6
:1007900002010200800000C040400201020201008C
:1007A0000000FC021212EC000E0300010100000028
:1007B0000000000000000000000000000000000039
:1007C0000000000000000000000000000000000029
:1007D0000000000000000000000000000000000019
:1007E0000000000000000000F80402FE02000C07F8
:1007F0000404070C00FE000000FE000007040404CF
:10080000070C00FE00FE00FE000007040704070CB2
:100810000000E01008F808000C070404070C00E0D2
:1008200014FC14E00000010A0F0A010000F80000A7
:1008300000F8000007040404070C00F800F800F8B2
:10084000000007040704070C00000000000000007F
:100850000000000000000000000000000000000098
:100860000000000000000000000000000000000088
:100870000000000000000000000000000000000078
:100880000000000000000000000000000000000068
:100890000000000000000000000000000000000058
:1008A0000000000000000000000000000000000048
:1008B0000000000000000000000000000000000038
:1008C0000000000000000000000000000000000028
:1008D000000000000000003CFE3C00000000001B87
:1008E00000000000160E00160E00000000000000C0
:1008F0000008FE0808FE0800010701010701003892
:10090000FE4484FE0800041F08081F07001C149CF6
:10091000402018000601000E0A0E00885422548858
:10092000C000030404020106000000160E000000CF
:1009300000000000000000F00804020200000304B0
:1009400008101000000002020408F0000010100857
:100950000403004850E0E05048000201000001029A
:1009600000004040F0404000000000010000000096
:100970000000000000000000160E00000040404093
:1009800040404000000000000000000000000000A7
:10099000000000000606000000000080402010005B
:1009A00002010000000000F804020204F800010245
:1009B0000404020100000804FE0200000000040715
:1009C00004000008048242241800060504040406FA
:1009D00000060212122AC60001020404020100E00D
:1009E000988680F88000000000040704003E221270
:1009F0001222C60001020404020100F8241212228D
:100A0000C000010204040201000602C262321E009C
:100A100000000700000000885422225488000102D0
:100A200004040201003844828244F80000040404F3
:100A30000201000000303000000000000606000047
:100A4000000000303000000000000A060000000036
:100A500040A0100804000000000102040020202033
:100A6000202020000101010101010000040810A064
:100A70004000000402010000001804824224180013
:100A800000000D00000000F804629294F8000102DA
:100A9000040404020000F8848284F80000070000C7
:100AA00000070002FE222222DC00040704040403E3
:100AB00000F8040202040E00010204040403000210
:100AC000FE020204F8000407040402010002FE22F0
:100AD000720206000407040404060002FE227202E9
:100AE000060004070400000000F8040282848E005F
:100AF0000102040402070000FE202020FE0000077F
:100B00000000000700000002FE02000000000407D1
:100B100004000000000002FE0200000204040300C2
:100B20000002FE22F09C06000407040007040002F5
:100B3000FE02000000000407040404060000FE1C7E
:100B4000701CFE0000070000000700FE1C70C0FEC5
:100B5000000007000001070000F804020204F8008A
:100B60000102040402010002FE4242423C0004076A
:100B70000400000000F804020204F8000102040569
:100B800002050002FE42C2423C00040700000704C6
:100B9000000C122222448E00010204040201000013
:100BA0000E02FE020E000000040704000000FE001A
:100BB0000000FE0000030404040300007EC000C027
:100BC0007E000000010701000000FE80F880FE00AA
:100BD000000107010701008ED87070D88E00070051
:100BE00000000007003E60C0603E000000040704F3
:100BF00000000006824222120E00070404040406CC
:100C00000000FE0202020000000F080808000008B1
:100C100010204080000000000000000102000202DD
:100C200002FE0000000808080F000000080402048B
:100C300008000000000000000000000000000000AC
:100C40000808080808080800000E16000000000048
:100C50000000000000C0282848F00000030404043D
:100C600003040002FE120808F00004070404040351
:100C700000E010080810380001020404040200F02B
:100C8000080810FE020003040404070400E0908832
:100C90008890E000010204040400000010FC12121D
:100CA000040000040704000000F0080808F0080031
:100CB000010A0A0907000002FE100808F0000407F4
:100CC0000400000700000016F60000000000040702
:100CD00004000000000016F60000000408080700E9
:100CE0000002FE40F098080004070400070400001A
:100CF0000002FE0000000000040704000008F808DD
:100D0000F008F0000407000700070008F8100808C2
:100D1000F00004070000000700E010080810E000E1
:100D20000102040402010008F0080808F000080F9E
:100D30000902020100F0080808F008000102020997
:100D40000F080008F8201008300004070400000015
:100D500000304848489038000204040404030000AE
:100D600010FE1010000000000304040200F8000050
:100D700000F808000304040207040078C000C078EB
:100D8000000000010701000000F880F080F800007A
:100D90000107010701000018B0C0C0B01800060329
:100DA000000003060008F80000F8080000090A0A1D
:100DB00007000018088848281800060504040406DF
:100DC000000040A01C02020000000007080800000C
:100DD00000003E0000000000001F000000000202B2
:100DE0001CA04000000808070000000406020604DA
:100DF00006000000000000000000000000000000ED
:100E00000000000000000002FE221212E6000407AB
:100E1000040404030002FE020202060004070400A8
:100E200000000016F690D0163600040704050406EC
:100E30000000DE70FE70DE00000700070007000EF5
:100E40000422225488000204040402010000FEC0AF
:100E5000701CFE000007010000070000F882C66257
:100E6000F8000007010000070000F80402FE02007D
:100E70000407000407040000FE020202FE0000074F
:100E80000000000700023E4040FE02000002040491
:100E9000030000E0100AFE0A10E000010A0F0A0138
:100EA00000027E8042FE02000000000407040000F1
:100EB000FE00FE00FE000007040704070002FE42D9
:100EC0002020C00004070404040300FE4020C000EA
:100ED000FE00070404030007000E04722224F80039
:100EE00002040404020100FE20FC0202FC000700D0
:100EF00003040403003C42C242FE02000407010056
:100F000007040000F0482426C20000030404040380
:100F10000008F8484848B000040704040403000827
:100F2000F8080808180004070400000000C6A6908E
:100F300090A6C6000102040404000000B8C0F8C076
:100F4000B8000007000700070038100848A8100084
:100F50000304040404030000F880C060F8000007E4
:100F6000010000070000F0008CC6F000000703013C
:100F700000070008F848E0380800040704010704E7
:100F80000000E01008F8080004070004070400004F
:100F9000F870C070F8000007000100070000F8407A
:100FA0004040F8000007000000070000F8080808AB
:100FB000F80000070000000700003808F8083800B3
:100FC0000000040704000008F80000F80800000012
:100FD0000105070400F800F000F80000070407040A
:100FE0000700003808F84020C0000004070404038C
:100FF00000F84020C000F8000704040300070008C0
:10100000F8402020C00004070404040300381048FE
:101010004850E00001020404020100F840F0080812
:10102000F0000700030404030070888888F00800BB
:10103000040601000704000011241FBECFEFD8E012
:10104000DEBFCDBF21E0A0E0B1E001C01D92AE3B0C
:10105000B207E1F70E94A6160C94DE3E0C94000045
:101060005D98559A80FD599A80FF5998519A539AE4
:101070005A9867FD5B9A67FF5B985A9A5A9866FD83
:101080005B9A66FF5B985A9A5A9865FD5B9A65FF72
:101090005B985A9A5A9864FD5B9A64FF5B985A9AD7
:1010A0005A9863FD5B9A63FF5B985A9A5A9862FD5F
:1010B0005B9A62FF5B985A9A5A9861FD5B9A61FF4E
:1010C0005B985A9A5A9860FD5B9A60FF5B985A9AAF
:1010D0005D9A5A985B98089597FF09C08F939F93E4
:1010E0008DE29AD59F918F91909581959F4F6BE15D
:1010F00071E04AE050E00E947D3E2CC6EDDF01C069
:10110000EBDFD7C5EF92FF920F931F93182F062F97
:10111000F42E82E791E029D6EE24E0913601F09199
:1011200037018685E81611F4812F09C08485E816F9
:1011300011F4802F04C08585E81611F48F2D6CD52D
:10114000E3948E2D833049F71F910F91FF90EF901C
:101150000895EF92FF920F931F93182F062FF42EEE
:1011600080E0E5D588E791E000D6EE248E2D9ED56F
:10117000EED5E0913601F09137018685E81611F43D
:10118000812F09C08485E81611F4802F04C085855D
:10119000E81611F48F2D40D58CD5E3948E2D833035
:1011A00029F71F910F91FF90EF900895682F80E02D
:1011B00092E0662309F491E0623009F481E0089539
:1011C0000F93082FE6EAF1E0880F880FE80FF11D72
:1011D00060817181828193816436710581059105F9
:1011E00068F42091190127FD09C0802FDFDF692FE6
:1011F00007D26EEF23E044E0E7D604C04FEF04E0EF
:1012000024E0F9D556D50F910895863058F4E5E9D4
:10121000F1E0E80FF11DE80FF11D8081918163E09D
:10122000DED647C508951F93182F80916F0188233C
:1012300019F03FD580E0F0D406D489E691E095D549
:10124000812F82958F70E1DF812F8F70DEDF1F91FC
:1012500008958091060182958F7018D080910601C3
:1012600083701AD080910601DECFE9E8F1E0E80F43
:10127000F11D0895CF93F9DF9081C681C91710F44D
:1012800005D001C011D015D5CF910895EEDF8F9311
:1012900080810CD58F9100C08F9387E391E065D555
:1012A0008F91E3DF868102C5E0DF8F938681FED4D4
:1012B0008F9100C08F9383E391E057D58F91D5DF55
:1012C0008081F4C48F932F932AE080953B9A0894F1
:1012D00010F4439802C0439A000020D027D086958E
:1012E0002A95B1F72F918F91089503D002D001D0A4
:1012F00000D000D003D002D001D000D000D003D065
:1013000002D001D000D000D0A89503D002D001D0E7
:1013100000D000D003D002D001D000D000D003D044
:1013200002D001D000D000D003D002D001D000D034
:1013300000D00000089590E0893C28F0885C48ECDB
:10134000849FC0011124009709F408952091810021
:10135000277019F0D9DF0197F6CF8130910519F088
:1013600002973CE803C03EE380E090E02091B200A9
:10137000230F2093B30042E04093700027E023BF87
:10138000889526E023BF10927000A895DCCF8F933C
:1013900084E0D1DF07C08F9382E0CDDF03C08F935D
:1013A00081E0C9DF8F911F93182F106410937C0088
:1013B000E12FE07880912601E81759F0E0932601AB
:1013C000ADDF8FE980937A0083E083BF889582E068
:1013D00083BF20E030E0A901E0E01FC08FE98093E7
:1013E0007A0083E083BF889582E083BF60917800B4
:1013F00070917900260F371F411D511DE43061F4B3
:1014000080912801803041F084E02030380720F4BA
:1014100017FD02C01068CACFEF5F80912501E81761
:10142000E8F26091290170912A0117FF04C06091D0
:1014300027017091280180E090E00E94ED3C2FEFA1
:1014400033E040E050E00E942F3DB901CA012091F5
:10145000250130E040E050E00E942F3DC9011F917E
:1014600008959B01281B390B50F0C9010895BC0158
:101470008091290190912A016817790718F4861B39
:10148000970B089580E090E0089581E793E00E9433
:10149000B03E382F82E793E00E94B03E20912D01AC
:1014A000230F30912E01381F20930F01309310012C
:1014B00083E0283E380720F0C901885E934002C0CF
:1014C00080E090E062E370E00E94083D683008F040
:1014D00067E0EFEEF3E0E60FF11DE60FF11D459139
:1014E00055912591359162E3681B421B530B649F14
:1014F000C001659F900D1124499662E370E00E943F
:10150000083D620F731F709372016093710183E74E
:1015100093E00E94B03E992787FD909560912D0140
:1015200070912E01860F971F9093280180932701B9
:1015300090936E0180936D010895CF93DF9324E122
:1015400030E0B9010E94083DDC01E1E0F4E0E60F83
:10155000F71FE60FF71FC591D591459155914C1B8B
:101560005D0B4A9FC0014B9F900D5A9F900D112417
:10157000B9010E94083D6C0F7D1FCB01DF91CF9117
:1015800008950F9221E08C32920710F48CE291E0E2
:101590008C52914069E170E00E94083D99E16B3204
:1015A00010F0982F6BE2981BEEEEF2E0E60FF11DC3
:1015B000E60FF11D9F93CF010E94B03E482F319658
:1015C000CF010E94B03E582F3196CF010E94B03E0D
:1015D000282F3196CF010E94B03E382F6F91421BC9
:1015E000530B649FC001659F900D11240C9669E117
:1015F00070E00E94083D620F731FCB010F900895A9
:10160000AEE1B0E0E6E0FBE00C941D3E662EB82EA5
:10161000860F898320911301283059F52091770195
:10162000309178014091790150917A0157FD15C0B0
:101630001091860109C0CA01B9012AE0312D412D5E
:10164000512D0E942F3D1F5F173FACF391F42431C1
:1016500060E036074105510518F48FEF9FEF41C157
:10166000173F39F480E028178DE738074105410519
:1016700010F020E03DE72C8B3D8B27EDA22EE8E516
:10168000F2E0E60DF11D859188608E87E8E5F2E0D5
:10169000EB0DF11D859188608F87E5E5F2E0E60DA1
:1016A000F11D7590E5E5F2E0EB0DF11DC59090ECB4
:1016B000692AB92A81E0E82EF12C012D112D8E83A3
:1016C0001F82188619861A861B861C861D86188E10
:1016D000198E1B8E1A8E0E94422688E088B960926D
:1016E0007C001CDE3F8537B975B874B855E05A9553
:1016F000F1F7000014B815B8DD243E8537B975B888
:1017000074B860927C00A895A0927A0080917A00CB
:1017100086FDFCCF2090780030907900B0927C005C
:101720004C2DE3D02091780030917900288B398BB3
:101730003F8537B9C5B8C4B8A895B0927C00A092CF
:101740007A0080917A0086FDFCCF609178007091DC
:10175000790060927C00472DC8D04091780050916C
:10176000790014B8CB01820D931DE80EF91E011DFE
:10177000111DEA82FB820C831D8388899989840F5D
:10178000951F2E813F8168857985280F391F611D3E
:10179000711D2E833F836887798722E324171506FE
:1017A00048F075B874B8C4DD14B815B8888D839541
:1017B000888F07C0483E73E0570718F08A8D8395DD
:1017C0008A8F888999892817190658F03E8537B974
:1017D000C5B8C4B8ADDD14B815B8898D8395898FA7
:1017E00007C0883E73E0970718F08B8D83958B8F29
:1017F000D3945D2D5F3F49F05F3731F45C2D550F79
:10180000C50E572D550F750E78CF40903201509070
:101810003301440C551C9201E4E0240D351DEA957A
:10182000E1F72901570168016E807F8088849984DF
:10183000209113012830C1F46C897D89812D912D6F
:1018400065507040804090409B01AC010E94ED3C8F
:101850009B01AC0160E779E786E190E00E942F3DB3
:10186000621A730A840A950AA614B704C804D90434
:1018700028F46A187B088C089D0803C06624772426
:101880004301B20180E090E09301A4010E94ED3C8D
:101890009501A6010E942F3D89E493E07981870F8D
:1018A000911D0E94B03E682EC90160E170E00E9467
:1018B000083D260F371FC9016816190618F4861946
:1018C00091090FC08C5E9F4F8615910540F48C895D
:1018D0009D89843981E1980710F00E944B16812D73
:1018E000912D6E96E2E10C94393E10928100109297
:1018F000800010926F0010928B0010928A0057E0C7
:1019000056BB5FEF509385005093840055E0509391
:101910007B0057EB50937A0051E0509381005FE4D5
:101920005A95F1F70000000045B944B95BE05A95BB
:10193000F1F714B815B81092810080917A0084FFF5
:10194000FCCF80937A000895609335018093030162
:1019500086958093A50187E0689F602D1124609390
:101960000401089580913501809301018091A501C2
:101970008093020108958091020160910101880F16
:10198000E3CF0895682F80E06BCB08958EEAFADFED
:1019900085EAF8CF08958DE095DC8AE093CC089530
:1019A0001092A50160E080E0CFDFF5CF0895CF93DE
:1019B000DF93C0E080E1E6DF80E0E4DF8C2F806B26
:1019C000E1DFD4E860E081E04BDBD150D9F7CF5FB5
:1019D000C83081F7E5DFDF91CF91089558985A9884
:1019E0005B985D98509A529A539A559A9CDC5D9AEE
:1019F000559A5998519A84E19EDC589A84E19BDC6F
:101A00008EEAC0DF82EEBEDF82EABCDF80EABADFA8
:101A100080ECB8DF8FE2B6DF84E2B4DF81E8B2DFCA
:101A200088E493E00E94B03E8F73ACDF80E4AADFCD
:101A300084EAA8DF86EAA6DFBADF8FEAA3DF60E0E8
:101A400080E082CF089581E08093A50160E082E08C
:101A50007BDFA1CF089582E08093A50160E084E060
:101A600073DF99CF089583E08093A50160E086E05D
:101A70006BDF91CF0895582F28E030E090E841E0E7
:101A800080E0642F652309F0892B440F969521503F
:101A90003109B9F70895A0E0B0E0E1E5FDE00C946C
:101AA000213E6C0110E0C801860F911D813891051F
:101AB0000CF068C0F12CE40EF11C81E4E816F1048E
:101AC0000CF060C0D42FD695D695D69581E0E81A53
:101AD000F10883E0F594E7948A95E1F7822F82700C
:101AE000A82E21FF0DC0C70199278D1B9109809F4A
:101AF000A001819F500D909F500D1124C40ED51E42
:101B0000CE2DC83008F0C7E0862F82958F70806197
:101B1000682E6F70B62E2170722E780181E0E81A5F
:101B2000F108CD1750F18D2F806B2CDF862D2ADF29
:101B30008B2D28DF812C912C80169106A9F077201F
:101B400031F0F701E819F909EC0DFD1D03C0F601AC
:101B5000E80DF91D8491A1108EDF682F81E080DAF5
:101B60008FEF881A980AE8CFAA2019F0C01AD10A74
:101B700002C0C00ED11EDF5FD4CF809103018F70F1
:101B8000806B00DFCDB7DEB7EEE00C943D3EEF9208
:101B90000F93482F282F2F7380E6289F9001112440
:101BA000C90189599B4F46FF02C028E001C028E4C3
:101BB0002093050147FF03C01092000108C020E2F6
:101BC00020930001209105012D5E2093050120E264
:101BD000E22E08E120E040910001609105015BDF09
:101BE0000F91EF900895EF920F93262FFC016491CF
:101BF00031964491319604913196E49030910001F0
:101C0000430F30910501630F049645DF0F91EF906C
:101C1000089560E0E8CF0895EF920F93CF93C82F17
:101C2000809135018F5F8093350140910301440F0E
:101C3000440F440F2EE0C29FC001112420E1E22E88
:101C400007E020E060910401895F984F24DF8091D4
:101C50000401895F809304014C2F50E0FA01319711
:101C6000EA30F105E0F4EC5CFF4F0C946D3D8EE33F
:101C700005C08CE727DB8CE313C08CE723DB8CE704
:101C80000FC082E50DC08DE20BC085E709C08FE46F
:101C900019DB88E617DB8DE603C08CE401C08C2FCE
:101CA00011DBA895CF910F91EF9008958F5CB4CF81
:101CB000089580E2B1CF0895A1E0B0E0E2E6FEE051
:101CC0000C942D3E18162CF48983F3DF8981815002
:101CD000F9CF2196E2E00C94493E9091350182E1E2
:101CE000891BEACF0895A1E0B0E0E9E7FEE00C949B
:101CF0002D3E8983F2DF9091A5019F5F9093A5010E
:101D00008981943038F093E09093A50191E090930D
:101D1000380102C0109238019091A501682F892FD7
:101D2000880F12DE38DE2196E2E00C94493EDBDFBC
:101D3000F5D28091A501833008F02DCE089530DED4
:101D4000CCDF2ECE08957FDEC8DF7DCE08958DE3F3
:101D500063CF0895CF93DF93EC018991882311F02D
:101D60005BDFFBCFDF91CF910895CF93DF93EC0141
:101D7000CE010E94B03E982F9F7719F04DDF21963B
:101D8000F7CFDF91CF910895EF920F93FC0104916B
:101D90003196E49002967FDE0F91EF9008950F93B5
:101DA00080E991E0E2DF409185014D3F64F460916C
:101DB000730170917401809175019091760103E037
:101DC00026E419D002C08FE327DF0F910895909188
:101DD00012019F70923071F4AADF84E790E0C5DFB2
:101DE000E0913601F091370122E044E06FEF848109
:101DF0009581EAC00895AEE0B0E0E1E0FFE00C9428
:101E00001D3E142F622E702E6B017C010F7080E33B
:101E100089838A838B838C838D838E83F7FE0BC0AB
:101E20008DE2FADEF094E094D094C094C11CD11CF1
:101E3000E11CF11C04C075FE02C08BE2EDDE033034
:101E400061F1043099F00530C1F00630F1F074E62C
:101E5000872E912CA12CB12C073029F530E8832E48
:101E600036E9932E38E9A32EB12C1DC060E1862EF1
:101E700067E2962EA12CB12C16C050EA852E56E8AA
:101E8000952EAA24A394B12C0EC040E4842E42E4E3
:101E9000942E4FE0A42EB12C06C088EE882E83E04D
:101EA000982EA12CB12C2AE0222E312C412C512C21
:101EB000C814D904EA04FB0470F0C701B6016B5FD3
:101EC0007F4F8F4F9F4FA20191010E942F3D6901CB
:101ED0007A011F5FEDCF81E1810F9BEA899F812D00
:101EE0001124A82EA69486E0811B899F112D112410
:101EF0001695912F990F190F811B182F4E0187E00E
:101F0000880E911C2AE0A401C701B6010E945C3E24
:101F1000F40101900020E9F731977F01E818F908F2
:101F20009E2C6701DD24812F90E004968C159D0581
:101F300014F4A3941D5F8A2D90E0845D9F4F0E944E
:101F4000B03EA82E74FE04C0901610F40E1901C005
:101F500000E09E2C911A900E191424F08EE25CDEA3
:101F6000012F0E19111102C098EF992E812C10E04B
:101F7000C00ED11EE92C092C000CFF08482D50E0A2
:101F80004C155D05ACF4FA013696E01BF10B81E0CF
:101F900090E08C0F9D1FE80FF91F80813DDE839438
:101FA000882D90E08E159F0549F78EE235DEE6CF4D
:101FB000AA2011F08A2D30DE662011F0862D2CDE4D
:101FC0002E96E2E10C94393E0F93362FBC0180E04F
:101FD00090E0022F242F432F0EDF0F9108950F93CF
:101FE000062FBC0180E090E026E54DEF04DF0F9165
:101FF00008950F93042F28E440E0FDDE8AE70CDE0D
:1020000058DE0F910895E82FF0E0EE0FFF1FE05625
:10201000FE4FA591B49190910001490F9091050157
:10202000690F20E0CD01B0CE0895CF93DF93C82F84
:10203000D62FE0913601F091370148E16EE18685B7
:10204000E2DFE0913601F09137014D2F6C2F84854E
:10205000DADFE0913601F091370140E06EE18585ED
:10206000D2DFDF91CF9108951F93CF93DF939FDC51
:1020700080EC8DDD62E086EA91E0B5DD80E887DD09
:102080008BED91E0C6DD60E085E05EDC85E891E007
:102090006CDE69E085E058DC8DE791E066DE88E97A
:1020A0009AE300D184DC83E472DD83E070DD84EEAA
:1020B00091E0AFDD61E082E047DC8EE4ADDD8DE2F2
:1020C000ABDD8FE991E051DE6AE082E03DDC80E546
:1020D000A3DD8DE2A1DD8FE991E047DE88E99AE397
:1020E000E1D065DC81EC53DD81E851DD8DE392E0E8
:1020F00090DD60E085E028DC8EE48EDD8DE28CDD15
:1021000085E48ADD89E991E030DE69E086E01CDC67
:1021100080E582DD8DE280DD85E47EDD89E991E088
:1021200024DE88E99AE3BED042DC81E430DD81E33D
:1021300092E06FDD81E02BDD8DE092E06ADD60E012
:1021400081E002DC8EE468DD8DE266DD84E464DD3E
:1021500089E991E00ADE69E082E0F6DB80E55CDD9A
:102160008DE25ADD84E458DD89E991E0FEDD88E9FD
:102170009AE398D01CDC82EC0ADD82E808DD83E07B
:1021800092E047DD60E085E0DFDB8EE445DD8DE257
:1021900043DD85E441DD84EA91E0E7DD69E086E046
:1021A000D3DB80E539DD8DE237DD85E435DD84EA9A
:1021B00091E0DBDD88E99AE375D0F9DB82E4E7DCC6
:1021C0008DEF91E026DD82E0E2DC8BEE91E021DD17
:1021D00061E081E0B9DB8EE41FDD8DE21DDD84E48A
:1021E0001BDD84EA91E0C1DD6AE082E0ADDB80E5E1
:1021F00013DD8DE211DD84E40FDD84EA91E0B5DDCD
:1022000088E99AE34FD0D3DBCBDB88E191E0ADDD09
:102210001ADC83E191E0A9DD1EDC8BE591E0A5DD10
:1022200022DC87E391E0A1DD44DD83E391E09DDDE5
:10223000C0E012E18C2F612F0E94FC3C91110BC079
:10224000D82FD37021F488E99AE32CD0B0DB60E07A
:102250008D2F880F79DB80E28C0FDEDCCF5FCF35EE
:1022600049F788E99AE31ED0A2DBC0E0D2E18C2FC7
:102270006D2F0E94FC3C911103C060E0880F64DB6D
:10228000C83210F480E801C088EE8C0FC5DCCF5F47
:10229000CF3269F788E99AE305D089DBDF91CF91E6
:1022A0001F910895EF92FF920F931F93CF93DF93A7
:1022B000F82EE92EC5E64F9B05C0CF2DDE2D15E586
:1022C00000E019C081E037D8C150A9F7F6CF82E00D
:1022D00032D8110F4F9B1F5F1F731F3379F4011109
:1022E00003C0CF2DDE2D04E00F5F083C88F4A895D5
:1022F0001C161D0644F0D7FFEACF0AC01111F7CF14
:102300000023A9F305C02A97B1F7CFEFDFEFF3CF92
:10231000802FCDB7DEB7E6E00C94453ECF9322DBAD
:10232000C82F809138018823D1F0813051F4C33017
:1023300041F461E186E008DB8BE26EDC61E186E07E
:1023400003DB80E49FE1AEDFC33041F480913801CC
:10235000813021F460E086E0F7DABFDC0CDBCF915E
:102360000895189518950F931F93CF93DF9340917D
:102370001101C0913601D0913701A9E8B1E020E008
:1023800030E0822F2417C0F489015D912F5F3F4F09
:102390009C855917B1F3B90167577E4FFB015581F1
:1023A000591779F3F801EE0FFF1FEB56FE4F20810E
:1023B0003181293E334008F084E1DF91CF911F91B4
:1023C0000F9108951092130110921101109268015B
:1023D00010924801109212011092340110926F0174
:1023E000E3E5F1E0108211821282E3E7F1E0108A66
:1023F00082E0818B1092190117861686148215824D
:102400001682178281EF838B08958FE40E94620900
:1024100086E40E94620986E40E946209BCDAB6DAA8
:102420005E980E94780980E090E03CCF0895A1E09A
:10243000B0E0EDE1F2E10C942B3E98E097B998B949
:10244000E82FF0E0EB5AFD4F949195B9262F281B09
:10245000E20FF11D27FDFA95E491E92BE4B96983B8
:102460000E94D3098C016981862F0E94D309AC0197
:102470002091290130912A0136952795B9016350A1
:102480007109C8014E966817790770F4255E3F4FB1
:102490000217130748F4CA014E966817790720F40B
:1024A00081E04217530708F080E014B82196E4E079
:1024B0000C94473ECF9361E080E0B9DFC82F62E023
:1024C00080E0B5DFC80F62E081E0B1DF8C0FCF9113
:1024D0000895A3E1B0E0EFE6F2E10C941D3EB82EC2
:1024E00010921301807FA9F4E5DF833009F0CFC398
:1024F0005EDA86E792E039DCA6DA8FE38DDB80EDE9
:1025000097E0D0DE8B30C8F452DA85E091E02DDC24
:10251000BEC306E910E04BDA8CEC91E026DCCADFA2
:10252000833021F41F5F143010F007C010E088E200
:102530000E949B09015079F760C085DA0E94352A14
:1025400081EC90E012DC60E08BE493E00E94BD3E01
:1025500060E08CE493E00E94BD3E60E08AE493E09A
:102560000E94BD3E60E082E04BD86C019A83898373
:1025700061E082E045D87C019C838B8360E081E050
:102580003FD88C019E838D8323E040E26EEFC6012D
:102590001BDD23E040E26EEFC70116DD23E044E0DF
:1025A0006EEFC80111DD2AE5C216D10424F084E1E2
:1025B00090E09A83898369818BE493E00E94BD3E19
:1025C0008AE5E816F10424F084E190E09C838B8393
:1025D0006B818CE493E00E94BD3E0A35110524F026
:1025E00084E190E09E838D836D818AE493E00E9474
:1025F000BD3E82E08093380191DEEB2DEF70EF87D6
:10260000E13011F018E784C101E010E068EB862E9C
:1026100062ED962E67E4A62EB12C72E0E72EE8E07C
:10262000FE2EFCE02F2EA4EC4A2EA6E35A2E612C9F
:10263000712CC12C302E50E2D52E85DB80DB84E559
:10264000EBDAC8010E94770834DB01301105B9F4D8
:1026500084EF90E08ADB64E080912D0190912E015F
:10266000BEDCF1D98FEE90E080DB8091710190911A
:1026700072010E9477088EEB8093250178C0F2E00A
:102680003F1245C02091290130912A01A8E5BBE104
:102690000E94733DA30192010E94513D81E085B9E2
:1026A00085E084B980E0288B398B4A8B5B8B0E9454
:1026B000C709288939894A895B89821B930B9A83C8
:1026C000898381E184B980E0288B398B4A8B5B8BCD
:1026D0000E94C709288939894A895B89821B930B23
:1026E0009C838B8384E085B984E184B981E0288B65
:1026F000398B4A8B5B8B0E94C70928893989821BD9
:10270000930B9E838D8389ED90E02FDB3DC0E3E04A
:102710003E122DC0E5B8FAE0F4B980E00E94C70986
:102720002091290130912A013695279538872F83EA
:10273000821B930B9A83898322E224B980E00E9452
:10274000C7092F813885821B930B9C838B83F5B837
:1027500088E284B981E00E94C7092F813885821BF5
:10276000930B9E838D838BEC90E0FFDA27C00430BF
:10277000110551F48CE692E0F8DA9CDE882309F426
:102780004AC0B2E0CB2E47C005301105B9F415B8E8
:10279000E4B880E00E94C7099A838983F4B881E095
:1027A0000E94C7099C838B83D4B882E00E94C7092A
:1027B0009E838D838BEE90E0D8DA74C006301105CD
:1027C00051F5E4B8E5B880E00E94C70920912901DD
:1027D00030912A01821B930B9A838983F4B8F5B850
:1027E00081E00E94C7092091290130912A01821BB2
:1027F000930B9C838B83D4B8D5B882E00E94C70921
:102800002091290130912A01821B930B9E838D8395
:1028100087EE90E045C00730110509F043C02091D4
:10282000290130912A01A8E5BBE10E94733DA50171
:1028300094010E942F3DE5B8E3E0E4B980E0288BE5
:10284000398B4A8B5B8B0E94C709288939894A8951
:102850005B89821B930B9A838983F5B824B881E046
:10286000288B398B4A8B5B8B0E94C7092889398951
:102870004A895B89821B930B9C838B83D5B8F0E3D9
:10288000F4B982E0288B398B4A8B5B8B0E94C70995
:1028900028893989821B930B9E838D8385EC90E078
:1028A00064DA03C00130110579F0CDD889819A81AD
:1028B0000E946C08FED98B819C810E946C08F9D91A
:1028C0008D819E810E946C08F7B8F8B814B815B8CD
:1028D00088EE93E0E7DC0430110511F08B3028F42A
:1028E000C39423E02C1508F0A8CE88EE93E0DADC40
:1028F0000F5F1F4F0830110509F09BCE83CE23DAFE
:102900008CE692E032DA84E60E949B09115019F0BD
:10291000D1DD8111F4CF4BD88AEB90E026DA23E0A9
:1029200044E06FEF80912B0190912C014DDB8BD80F
:1029300083EB90E01ADA23E044E06FEF80913201FC
:102940009091330141DB82E080933801E7DC109203
:1029500013012DD88FEA90E008DA60E082E00E944F
:10296000122780907B0190907C01A0907D01B09017
:102970007E019C868B8661E082E00E941227C090D7
:102980007B01D0907C01E0907D01F0907E01DE869D
:10299000CD8660E081E00E94122700917B011091BA
:1029A0007C011E830D8362E080E00E9412278091EB
:1029B0007B0190917C019C838B8362E081E00E948B
:1029C000122780917B0190917C019A87898761E031
:1029D00080E00E94122720917B0130917C013A8394
:1029E00029838F85813021F080913101823029F453
:1029F0002E5F3F4F38872F8304C038872F83109274
:102A00003101C4010E948008C6010E948008B801FB
:102A1000110F880B990B03E026E444EFECD98E01EB
:102A20000F5F1F4F6E01EFE0CE0ED11CF8018191B8
:102A300091910A97853B9105D0F4EC15FD05B9F706
:102A40004AE6E42E43E0F42EF80160810E5F1F4F4A
:102A50006E5EC7010E94BD3EFFEFEF1AFF0A0C1524
:102A60001D0591F70E94230D85EB91E07ED982E050
:102A70008093380153DC0E9491392F85213029F051
:102A800080913101823009F0ECC00E94D70C80E0C7
:102A90000DD98BE591E069D982E008D984E290E014
:102AA00064D920E4F22E10E03AE0832E912CA12C80
:102AB000B12C88DC1092130160E082E00E941227A2
:102AC000009185016091730170917401809175018D
:102AD00090917601073F44F40F5FA50194010E9495
:102AE0002F3DCA01B901F6CF0093850160937301B0
:102AF000709374018093750190937601073F09F0FC
:102B000099C0DC01CB0180569109A109B109803936
:102B10009545A105B10508F08DC0609187017091C0
:102B20008801CB018B569F4F8B32914008F082C0B9
:102B30001F5F153008F47FC081E793E00E94CB3E11
:102B40000E94D70C8DE190E010D98091870190917F
:102B500088010E946C080E94450A88E088B989E0D3
:102B600087B980E284B982E00E94D309853D934011
:102B7000D4F714B8109228011092270182E00E9425
:102B8000D3098C0180916D0190916E019093280181
:102B90008093270182E00E94D3097C01EE0CFF1C88
:102BA000109228011092270182E00E94D309C09060
:102BB0006D01D0906E01D0922801C0922701800F44
:102BC000911F8C010E191F090E94230D86E190E0D0
:102BD000CCD883E793E00E94B03E93E0B92EB80EC4
:102BE0009601D8010E94823D97010F2C000C440BE6
:102BF000550B0E94513D1B2D120F612F83E793E06F
:102C00000E94BD3E812F012E000C990B0E946C0882
:102C10000E94450A82E08093380180DB10923101E6
:102C20008AE693E00E94B03E682F8DE693E00E9412
:102C3000BD3E17C010E00E94230D6091730170919A
:102C40007401809175019091760104E026E4409131
:102C50008501D1D842D888E20E949B09FA94F110EC
:102C600028CF89E18093250180E00E94A73C0E9443
:102C7000D70C85E091E079D80E94230D8DE592E094
:102C800074D81092130182E08093380147DB639679
:102C9000E2E10C94393E8091310181110DC08AE648
:102CA00093E00E94B03E61E0680F8DE693E00E94E1
:102CB000BD3E81E0809331010895A1E0B0E0E3E6FC
:102CC000F6E10C94283EE82FF0E0E85AFD4FE4913D
:102CD000E8B9E860E7B915B8E62FF0E0EB5AFD4F28
:102CE000E491E4B988E8E82E83E1F82EDE2EDD0CCD
:102CF000862F69830E94C7098C01D4B869818E151B
:102D00009F0510F47801F4CF892BE1F00E94330D78
:102D10008BE391E02AD8D80120EA36E841E050E080
:102D20000E94883D28E937EB40E050E00E942F3DAB
:102D3000DA01C90122E041E467EF46D988E087B9AA
:102D400088B914B82196E7E00C94443EA1E0B0E0C5
:102D5000ECEAF6E10C941D3E80E48AB98BB987E871
:102D600080937A001092C1000E947A0914B784B748
:102D7000877F84BF0FB6F894A89580916000886122
:102D800080936000109260000FBE86E8809364001C
:102D900088E380937E001092B00087E08093B100BA
:102DA00078940E94EE0C13FDA5C580E185BF10E06C
:102DB0004F9906C082E00E949B091F5F1C33C1F738
:102DC0008FE59DE690930C0180930B011F3130F04D
:102DD00080E69DE690930C0180930B0110922601F2
:102DE0000E94352A9FE088E10FB6F894A895809359
:102DF00060000FBE909360001C3389F048E0942E71
:102E000052E1352E68E1862E79E3A72E71E0B72EC8
:102E1000E9E5CE2EE1E0DE2EFCE02F2E37C00E9449
:102E2000B9358111FCCFEACF823009F458C1833023
:102E300009F481C184EC92E00E94B50E88EA92E028
:102E40000E94B50E0E94230D80911101805D0E94A9
:102E50000C0E8AE20E940C0E87E391E00E94B50EF0
:102E60008EE892E00E94B50E0E94CB0C86E00E9494
:102E7000C70D80E49FE187B84F9BFECF13DA823302
:102E800008F4C9C40E94B9358111FCCF8FEA0E94B1
:102E9000C20C84EA0E94C20C0E94D70C97B892DA46
:102EA0000E94352A0E94D00C36D5809134018823A7
:102EB00079F00E94230D80E591E00E94B50E63E059
:102EC0008091290190912A018AD888EC0E949B095F
:102ED0000E94230D0E94422680911301893021F522
:102EE0000E94D70C85E591E00E94B50E0E94230D4B
:102EF00063E080914D0190914E0171D80E94590E6E
:102F000063E080914F019091500169D80E94590E61
:102F100063E0809151019091520161D88AEC0E9446
:102F20009B0981E1D6DA72C48DE693E00E94B03E3F
:102F3000182F8AE693E00E94B03E181B10933101CF
:102F400080E0C7DA0E94A30E83EE92E00E94B50EE5
:102F500083E00E9462090E94CB0C42E061E080E0C5
:102F60004ED542E060E081E04AD541E062E080E099
:102F700046D541E060E082E042D540E062E081E099
:102F80003ED540E061E082E03AD5809113018111A5
:102F90000EC00E94422660E082E00E94122761E09B
:102FA00082E00E94122760E081E00E9412270E94C6
:102FB000D70CB0923701A092360180911301863070
:102FC00069F485EC0E94C70D60E188EF2ED867E0B8
:102FD00080E00E94A40C82EB92E00EC08730F1F4F6
:102FE00084EC0E94C70D60E188EF1FD867E080E0A5
:102FF0000E94A40C8BEB92E00E94B50E67E082E089
:103000000E94A40C89E691E00E94B50E62E08091D6
:103010003D0190913E010E94EF0FF6C3883081F48C
:10302000209183018091840190E0820F911D02978D
:1030300019F40E94892CF1C380E00E94BB2BE6C3E7
:10304000833009F0B6C080911101813009F0ECCED7
:1030500080E00E943A096091890180918F012DDE04
:1030600080E70E94130940E06091890180918F01FF
:103070000E94B1386093730170937401809375015D
:103080009093760180E00E94970E60917301709199
:103090007401809175019091760102E026E442EF7F
:1030A0000E94FB0E8DE20E940C0E41E060918901AE
:1030B00080918F010E94B138609373017093740105
:1030C000809375019093760126E442EF0E94FB0EF7
:1030D0008CE291E00E94B50E0E94CB0CF8C282E314
:1030E0000E940C0E8DE191E00E94B50E8091890145
:1030F00020918A01821307C080E00E94540981E078
:103100000E944C090CC030918F01909190013913AD
:1031100008C080E00E94460981E00E945A0981E0CF
:10312000A0CF321302C081E003C0981383CE80E1A8
:103130008093060130C083E38093060180918F0164
:1031400090918A01891303C021E0209306014091E8
:10315000890130919001431303C020E120930601BF
:1031600020918B01821303C082E08093060180913D
:103170009101481303C040E24093060132130EC090
:1031800030920601981761F083E30E940C0E8DE1E6
:1031900091E00E94B50E0E94290999C2981303C0BC
:1031A00081E28093060180910601823208F042CECE
:1031B000EBCF843009F054C180916801882309F471
:1031C0005FC080914801882309F45AC0609145018D
:1031D000809147010E941227409073015090740122
:1031E0006090750170907601109185016091670182
:1031F000809165010E9412278091390190913A01D6
:10320000A0913B01B0913C014091590150915A016C
:1032100060915B0170915C01843F21E09207A10500
:10322000B10538F4443F31E053076105710508F0FA
:1032300010EF443F51406105710540F4843F9140D7
:10324000A105B10518F080EF80938501809185017B
:1032500018130EC08091730190917401A0917501B3
:10326000B0917601481659066A067B0618F006C02A
:10327000181724F49DE09093120102C020921201CD
:1032800080916801882361F080914801882341F092
:103290004F9906C09091120181E089278093120115
:1032A00067E080E00E94A40C80EC0E94C70D809132
:1032B00012018C3051F485E891E00E94B50E8091A6
:1032C00068018823A9F080E711C0D0923701C0922D
:1032D00036018BED91E00E94090E8DE791E00E948E
:1032E000B50E80914801882319F08EE60E940C0EDD
:1032F0003AD8182F8530A0F4A0913601B09137014B
:10330000E82FF0E0E757FE4F1D969C9180819817BB
:1033100011F062E001C060E086EA91E00E94F30DE6
:1033200060E189EF0E94151087E00E94730E84E926
:1033300091E00E94B50EE0913601F0913701608175
:1033400071818281938103E020E04EEF0E94FB0EA9
:1033500088E00E94730E89E40E940C0EE091360111
:10336000F0913701868197818031974270F085E630
:103370000E940C0EE0913601F09137018681978111
:10338000805197429783868303C083E60E940C0E88
:103390000E94A70EE0913601F091370122E041E44E
:1033A0006AEF868197810E94E40F87E00E94730E86
:1033B0008DE691E00E94B50EE0913601F091370163
:1033C00063E0848195810E94EF0F81E08093380152
:1033D000E0913601F091370180859185892B91F03C
:1033E00086E00E94970E8FEF90E00E94B50EE0916C
:1033F0003601F091370122E041E46AEF8085918542
:103400000E94E40FE0913601F091370182859385A7
:10341000892B91F086E00E94970E89EF90E00E9440
:10342000B50EE0913601F091370122E041E46AEFF8
:10343000828593850E94E40F153078F480E00E9425
:10344000970E812F0E943A0989E691E00E94B50EFD
:10345000812F0E9405090E94CB0C43E462E433C132
:10346000853009F040C167E080E00E94A40C8091A3
:10347000120184FF09C080E50E940C0ED092370132
:10348000C092360112E004C08EE40E940C0E10E0DF
:103490008DE20E940C0E80911201082F0F700430F3
:1034A00061F48FE991E00E94B50E83EC0E94C70D94
:1034B0001123E1F184EE91E037C085FF05C084E47B
:1034C0000E940C0E1F5F03C085E40E940C0E0330A7
:1034D000B1F489E991E00E94B50E81EC0E94C70D1C
:1034E000113019F481E392E01FC0123019F48DE31A
:1034F00092E01AC01330D1F48DE092E015C084EA56
:1035000091E00E94B50E82EC0E94C70D113019F4B3
:103510008DEF91E009C0123019F483E092E004C00D
:10352000133021F48BEE91E00E94090E0E94B3113A
:103530008530A0F4A0913601B0913701E82FF0E07A
:10354000E757FE4F1D969C918081981711F062E01D
:1035500001C060E086EA91E00E94F30D60E189EF2E
:103560000E94151087E00E94730E8091120185FD64
:103570001CC085E691E00E94B50EE0913601F09105
:10358000370162E0828593850E94EF0FE09136015A
:10359000F0913701668584850E94122787E00E949A
:1035A000730E0E94CF0E86E06EC08F70E0913601E0
:1035B000F0913701843039F0668584850E941227A6
:1035C0000E94CF0E13C084819581892B79F080E011
:1035D00090E00E94B50EE0913601F091370122E0B3
:1035E00041E46AEF848195810E94E40F60E084E009
:1035F0000E94A40C89E40E940C0E84E60E940C0E2A
:103600000E94A70EE0913601F091370122E041E4DB
:103610006AEF868197810E94E40F8FE591E00E9416
:10362000B50EE0913601F091370162E08285938515
:103630000E94EF0FE0913601F0913701808591856E
:10364000803C9241F8F480E00E94970E89E40E9449
:103650000C0E84E60E940C0E0E94A70E22E041E4AC
:103660006BEF80E090E00E94E40F8FE591E00E9414
:10367000B50EE0913601F091370162E080859185C9
:103680000E94EF0F80E00E94E70E043009F42AC187
:1036900010E080911101181788F480E00E94970EC5
:1036A000812F0E943A0989E691E00E94B50E812F90
:1036B0000E9405090E94CB0C1F5FEBCF033009F07D
:1036C00015C143E467E485E40E94A9089DC00E94F7
:1036D000CB0C80916F01882309F498C087B897B804
:1036E00080E00E94970E20916F01222309F47FC091
:1036F00080915601213091F40E94D6082091560104
:10370000213039F420911101211103C00E94432C72
:1037100084C040E0692F0E94062B78C09091570129
:1037200034E0939FD0011124AA55BE4F34E0839F0B
:10373000F0011124EA55FE4FED90FD900D911C9182
:1037400040815181628173814E155F056007710769
:1037500010F4F92E01C0F82E223029F4890F93E0DD
:10376000F92EF81A1CC08091580194E0899FD0016D
:103770001124AA55BE4F24E0F29EF0011124EA550F
:10378000FE4F0D911D912D913C914081518162819F
:103790007381401751076207730708F4F82E1F2D35
:1037A000169582E0E82EEF18F11002C001E001C08A
:1037B00002E0812F0E94560E88E191E00E94B50E32
:1037C0008E2D0E94560E88E191E00E94B50E802F4A
:1037D0000E94560E80E00E94730E81E0F11080E09E
:1037E0000E94E00882E0811B0E94E0080FC088E987
:1037F00092E00E94B50E0E94230D8BEC92E00E9495
:10380000B50E84EC92E02ECB0E94CB0C80910B0184
:1038100090910C0130CB811139CB809131018823FB
:1038200009F45DC034E0632E00E010E080E090E039
:1038300022E1422EFC01E00FF11FE55AFD4F74908A
:1038400030E2731201C0482E01968331910591F741
:10385000662041F0862D837061F489830E94D70C25
:10386000898107C080E197E20E945211882391F379
:1038700032C060E0880F0E94A40C0E94CB0CA89577
:103880006394862D8370682EE12CF12CE414A8F447
:10389000F701E00FF11FE55AFD4F74907720D9F042
:1038A0009FEF791203C00E94590E03C0872D0E941A
:1038B0000C0E2FEFE21AF20AE9CF772061F0040D27
:1038C000111DF801E55AFD4FE491E03209F0AECF49
:1038D0000F5F1F4FABCF80E197E20E9452110E9411
:1038E0000512D4CA4FE367E48FE3EECE44E467E405
:1038F00083E5EACE0E94D00C86E892E00E94B50EE5
:103900008BEC0E949B090E94051280E090E02196BA
:10391000E2E10C94393E0F931F93CF93DF9385E040
:103920000E94D30985E00E94CF098C01EC01CC0FE5
:10393000DD1FCC0FDD1F229610922F01C43883E0CB
:10394000D80750F489EA91E00E94B50E0E946D0EEE
:1039500081E080932F0126C088EB91E00E94B50E94
:1039600062E0CE010E94EF0F0E94590E0A3F86E0EE
:10397000180790F40333164060F485ED92E00E943E
:10398000B50E0E946D0E8DEC0E949B090E940512DF
:1039900009C08CED92E002C085EB91E00E94B50E6B
:1039A0000E946D0EDF91CF911F910F910895CF93DB
:1039B000DF93DC019C01261B370BE0E090E0B901AE
:1039C000690F711D672F7727920F260F371FBA01D6
:1039D0006E0F711D672F7727E40FEB01CC0FDD1FF2
:1039E0004C0F5D1F6B3E710528F4A217B30738F723
:1039F000CA0102C080E090E0DF91CF910895AEE16E
:103A0000B0E0E5E0FDE10C941D3E982E862E242EBC
:103A1000A895E62FF0E0EB5AFD4F24912B87220F5B
:103A20002C8B33963491398BE42FF0E0EB5AFD4F19
:103A30004491498333960491E82FF0E0EB5AFD4F0F
:103A40003490532D550F588B339684918C83886016
:103A50008D8338603B8345B9642E9B85692A64B8A1
:103A600087B9EC81E8B9862F0E94CF099D878C87A2
:103A7000FB85F4B9882D0E94CF095C0114B80E941F
:103A8000830915B864B8882D0E94CF096C857D859F
:103A90000E94310A6C012B8127B988E088B93981ED
:103AA00033293E8335B934B9892D0E94CF090E944C
:103AB000370A7C0115B80E94830935B8892D0E9408
:103AC000CF090E94370A2C0134B8892D0E94CF09F2
:103AD0000E94370A782E192FB201C7010E94310ABD
:103AE000803241E0940730F450E2C51651E0D5062B
:103AF00008F49FC5C40CD51CEC85FD858E0F9F1F57
:103B0000C816D90620F45D864C86A72CB12E2091CC
:103B100048018091680190E0820F911D02974CF05E
:103B2000213009F086C59091450180916501981377
:103B300080C51981110FF12FF329FA872C853D8556
:103B40002437310508F497C1C901880F991F44969D
:103B5000A816B90608F08FC13D8137B94C8148B924
:103B60008B85812B84B9882D0E94CB096C01822D15
:103B70000E94D3097C0115B9882D0E94CB099601BA
:103B8000295A3D4F2817390708F0AEC088E088B998
:103B90005B8157B98A8584B985B9822D0E94CB098A
:103BA00088349F4028F085E08093130182E204C0AE
:103BB00085E08093130184E280931201D0923E014C
:103BC000C0923D01B701C6010E943C0A9093440196
:103BD000809343019601A0E1B7E20E94733D2091DA
:103BE0000D0130910E0140E050E00E942F3D3093D6
:103BF000400120933F018C89812B84B915B8FD8148
:103C0000F7B92C8128B9822D0E94D3097C01882D17
:103C10000E94CB09B7010E943C0A9C01909342018B
:103C200080934101909112019F70943079F54091F9
:103C30003F01509140016091430170914401C901DD
:103C4000B6DE0097F9F014B9ED813989E32BE7B9B5
:103C5000882D0E94CB097C0188E087B99701A0E1FB
:103C6000B7E20E94733D209132013091330140E070
:103C700050E00E942F3DA901B70180914101909130
:103C8000420195DE90933E0180933D0180911201A7
:103C90008F70843009F4C4C488E088B94B81042B48
:103CA00007B934B85E8155B9892D0E94CF098C01BE
:103CB0000E94370A6C01882D0E94D309E0901401FC
:103CC000F0901501BC01C8010E943C0A9C01D7017B
:103CD0000E94733D960140E050E00E942F3D3093DA
:103CE0003E0120933D019CC488E088B98B8187B94F
:103CF0009A8594B995B9892D0E94CB096C01822DC2
:103D00000E94D3097C0135B8892D0E94CB09895ABC
:103D10009D4F8C159D0508F08CC4EC81E8B9FD81A0
:103D2000F7B9822D0E94CB09813D934028F485E0AC
:103D30008093130182E304C085E08093130184E340
:103D400080931201B601C7010E943C0A909364015E
:103D500080936301C6010E94370A9C01A0E1B7E28B
:103D60000E94733D209114013091150140E050E014
:103D70000E942F3D3093600120935F01B8E0FB2E3D
:103D8000F8B83B8137B98889812B84B985B9892DE9
:103D90000E94D3096C01822D0E94CB09B6010E94BA
:103DA0003C0A9C0190936201809361019091120101
:103DB0009F70943099F540915F015091600160913E
:103DC000630170916401C901F2DD009719F115B921
:103DD00014B94C8148B9EB815D81E52BE7B9892D98
:103DE0000E94CB090E94370A6C01F7B89C01A0E140
:103DF000B7E20E94733D20912B0130912C0140E0ED
:103E000050E00E942F3DA901B6018091610190917F
:103E10006201CDDD90935E0180935D01809112017E
:103E20008F70843009F4DAC1EC81E02BE8B98D8120
:103E3000082B07B915B89E8194B9892D0E94CF0926
:103E40007C01882D0E94D3096C0100910D01109115
:103E50000E01BC01C7010E943C0A9C01D8010E94CE
:103E6000733D960140E050E00E942F3D30935E018B
:103E700020935D01B3C188E088B9EB81E7B935B81B
:103E8000FA85F4B9892D0E94CF099B8B8A8B0E94F9
:103E9000370A99878887822D0E94D3099F878E874A
:103EA000250124E6420E511C48855985B50144166A
:103EB0005506D8F4CA010E943C0A7C0120911401E5
:103EC0003091150140E050E060E871EA83E09CE148
:103ED0000E942F3DD7010E94883DEE85FF856F012E
:103EE000E12CF12CA701960123C0888599850E94B9
:103EF0003C0A7C01FE81F4B9892D0E94CF099B8B7D
:103F00008A8B0E94370A99878887822D0E94D3095D
:103F10009F878E87BC01C7010E943C0A9C01A4E6D2
:103F2000B0E00E94733DEE85FF859F0140E050E0C8
:103F30000E942F3D69017A0114B815B8FC81F8B9C7
:103F40002D8127B981E00E949B0964B8882D0E94C9
:103F5000CF097B84712A8F359D4008F445C174B820
:103F6000882D0E94CB099C8F8B8F822D0E94D309B4
:103F70009E8B8D8B892D0E94D309988F8F8B4D89B5
:103F80005E89413D574008F4B9C084E08093130135
:103F90008DE080931201EB8DFC8DAE16BF0620F4F0
:103FA0008F010A191B0902C00B8D1C8D40900D0159
:103FB00050900E01612C712C60E871EA83E09CE165
:103FC000A30192010E942F3DD8010E94883D4D8996
:103FD0005E898A0120E030E0A90198010E942F3D0E
:103FE00080916801882369F08091590190915A016C
:103FF000A0915B01B0915C0182179307A407B507FC
:1040000010F52093590130935A0140935B0150936E
:104010005C012B8D3C8DA0E1B7E20E94733DA301B2
:1040200092010E942F3D3093600120935F016D89C2
:104030007E898F89988D0E943C0A90935E018093BF
:104040005D0181E001C080E04091590150915A0129
:1040500060915B0170915C014C155D056E057F05FB
:1040600038F5C0925901D0925A01E0925B01F0926A
:104070005C016E857F858A899B890E943C0A9093AA
:104080005E0180935D0128853985A0E1B7E20E9439
:10409000733D209114013091150140E050E00E94E1
:1040A0002F3D205F384D3093600120935F0103C0A6
:1040B000882309F49CC3C0900D01D0900E01E12C1F
:1040C000F12C9501A0E1B7E20E94733DA701960192
:1040D0000E942F3D30936201209361012C853D8524
:1040E000A0E1B7E20E94733DA70196010E942F3D17
:1040F000309364012093630181E079C351E6A516F2
:10410000B10408F071C08B8D9C8D813D974008F4FF
:104110006BC085E08093130182E1809312018B8D47
:104120009C8D86509F4F2F89388D8217930720F4DE
:1041300083E18093120119C000910D0110910E01CD
:104140006B8D7C8D8F89988D0E943C0A9C01D801D3
:104150000E94733DEB8DFC8D9F0140E050E00E947A
:104160002F3D30935E0120935D0109890770822DF8
:10417000806480937C001BE0CC24C394D12CEE247B
:10418000EA94A3E0FA2EA89561E0898163D574B81A
:1041900086B18023E9F3FB85F4B980917A008064CD
:1041A00080937A0080917A0086FDFCCF8091780020
:1041B000909179009701281B390BC20ED31E115024
:1041C00011F7C601880F991F880F991F69E070E0E9
:1041D0000E94083D709364016093630180916801BF
:1041E0008F5F8093680188CF74B815B9882D0E94BD
:1041F000CF096C01822D0E94D309998788870E947C
:10420000370A7C014C145D04B0F4B501C6010E946C
:104210003C0A8C0120910D0130910E0140E050E0EC
:1042200060E871EA83E09CE10E942F3DD8010E9482
:10423000883D97011EC064B8398135B9882D0E9428
:10424000CF096C01822D0E94D309998788870E942B
:10425000370A8C01C601AC14BD0410F48A199B09FD
:10426000B8010E943C0A9C01A4E6B0E00E94733DA4
:10427000980140E050E00E942F3D29013A014B8116
:1042800047B988E088B95E8154B955B9892D0E9433
:10429000CF098C01822D0E94D3099F878E87882D9C
:1042A0000E94D3097C01003381E1180708F0BEC1E8
:1042B00035B8892D0E94CF099C0134B8892D2D8FE6
:1042C0003E8F0E94CF09BC0115B881E0698F7A8FBB
:1042D0000E949B0935B8892D0E94CF09698D7A8D7E
:1042E0002D8D3E8D6034764008F05BC08133914166
:1042F00008F457C0C8018A569F4F2817390708F09D
:1043000050C086E080931301809148018F5F8093B5
:104310004801B7018E859F850E943C0A90933E011B
:1043200080933D01B701C8010E943C0A909344016B
:104330008093430114B815B8298928B981E00E94F7
:104340009B0934B8892D0E94CF09853F910508F05B
:104350005CC23E8134B9822D0E94CF09813D9340D9
:1043600008F453C2892D0E94D3098D3D924008F470
:104370004CC234B8892D0E94CF098D3D924008F47B
:1043800044C235B881E00E949B0915B8892D0E946E
:10439000CF09853F910508F038C287E0809313016B
:1043A00034C2FB81F7B9298124B925B981E00E9483
:1043B0009B093A8534B935B9892D0E94CF099C01F2
:1043C0002D8F3E8F0E94370A9F878E87822D0E94F5
:1043D000D3099F838E830E94370A8C01882D0E9407
:1043E000D3097C012D8D3E8D0E3F49E0140708F462
:1043F000B2C084E0809313018CE080931201B50178
:104400008E859F850E943C0A9A838983209114019E
:104410003091150140E050E060E871EA83E09CE1F2
:104420000E942F3DA981BA810E94883D980140E0F9
:1044300050E00E942F3D80914801882369F08091CF
:10444000390190913A01A0913B01B0913C01821752
:104450009307A407B50728F52093390130933A0153
:1044600040933B0150933C01B7018E819F810E9494
:104470003C0A90933E0180933D012E853F85A0E14B
:10448000B7E20E94733D209114013091150140E084
:1044900050E00E942F3D3093400120933F0181E086
:1044A00001C080E04091390150913A0160913B0197
:1044B00070913C01441555056605770528F5409235
:1044C000390150923A0160923B0170923C01B60171
:1044D000888599850E943C0A90933E0180933D0116
:1044E0009601A0E1B7E20E94733D20910D01309149
:1044F0000E0140E050E00E942F3D205F384D309388
:10450000400120933F0103C0882309F47FC1950136
:10451000A0E1B7E20E94733D20910D0130910E01A0
:1045200040E050E00E942F3D309342012093410132
:104530002C853D85A0E1B7E20E94733D20911401D6
:104540003091150140E050E00E942F3D309344012E
:10455000209343015AC151E6A516B10408F066C084
:104560008E859F8589349D4008F460C085E08093E6
:10457000130182E080931201C70186509F4F82177A
:10458000930720F483E08093120117C00091140177
:1045900010911501B701C9010E943C0A9C01D80184
:1045A0000E94733DEE85FF859F0140E050E00E9430
:1045B0002F3D30933E0120933D010C810770822DE9
:1045C000806480937C001BE0EE24E394F12CA8959A
:1045D00060E089813FD3FA85F4B9F5B986B18023CB
:1045E000E9F734B880917A00806480937A008091F2
:1045F0007A0086FDFCCF8091780090917900E80EDA
:10460000F91E115021F7C701880F991F880F991FB4
:1046100069E070E00E94083D70934401609343019B
:10462000809148018F5F80934801EFC088E087B98F
:1046300088B914B815B888E087B927ECA21621E02C
:10464000B20608F4C5C088B9388934B918EC0B81B2
:104650004D81042B07B981E00E949B095B8157B90A
:10466000892D0E94D309429710F0115099F788893B
:1046700084B985B961E08981EDD2892D0E94CF0985
:104680006C019C8994B915B8ED81E7B9FC81F8B942
:1046900060E08981DFD2882D0E94CF090E94370A0D
:1046A0008C012B8524B9882D0E94D3097C01892D8A
:1046B0000E94CF09B7010E943C0A5C01882D0E942C
:1046C000D3097C01892D0E94CF09B7010E943C0AC1
:1046D00095012C5E3F4F2817390708F47CC088E00D
:1046E00088B93B8137B934B835B861E08981B2D235
:1046F000882D0E94D3097C01892D0E94CF09B70122
:104700000E943C0A7C01A816B90650F4488944B9B5
:1047100045B9892D0E94CF099C018601570110C01F
:104720005C8954B915B88D8187B99C8198B960E0CE
:10473000898190D2882D0E94CF090E94370A9C015E
:10474000E8EEAE16E3E0BE0630F4C50164E670E0C4
:104750000E94083D06C0B50154E0769567955A95CC
:10476000E1F7C501875991098938914188F52A15E2
:104770003B0570F5C80143E0969587954A95E1F7AA
:10478000893C910510F088EC90E0800F911F8A150C
:104790009B05F0F460177107D8F480911301833002
:1047A00018F483E08093130120911101822F90E08F
:1047B000FC01E757FE4F90828682880F991FFC010B
:1047C000EB56FE4FB182A0822F5F2093110103C0F0
:1047D000682D892D29D088E087B988B914B815B813
:1047E0008EE20E940C0E6E96E2E10C94393E90919E
:1047F00068019F5F90936801882369F320926501A7
:104800008092660190926701E6CF81E09091480125
:104810009F5F909348018823F1F220924501909286
:10482000460180924701D7CFA0E0B0E0EAE1F4E290
:104830000C941D3EA895062F10E0F801EB5AFD4F91
:10484000B49033969491482F50E0FA01EB5AFD4F03
:10485000D4913396C491709168012091480130E061
:10486000270F311D232B09F0F0C1A89520911701C6
:1048700030911801220F331F220F331F30932A016A
:104880002093290120916D0130916E01220F331F79
:10489000220F331F30932801209327012EEB209302
:1048A000250170911101F9E8EF2EF1E0FF2EAFE83C
:1048B000B1E0F701400F511F2E2F2E19271748F492
:1048C00011912D9130E0210F311D24173507A1F7EB
:1048D00052C0662E782E88E088B9986097B9D4B90E
:1048E000D5B9B8E1FB2EC12CD12C862D0E94CF0961
:1048F000982E892E872D0E94D3098C018C199D0931
:1049000097FF03C0919581959109039734F0A8957D
:10491000FA946801F110E9CF2EC0DD0F15B8D4B9B3
:10492000872D0E94CF098135910528F5D5B9872DAE
:104930000E94CF096C018C2F886087B9C8B915B85F
:10494000B4B8A8E1AA2E412C512C872D0E94CF0982
:104950007C01862D0E94D309EC018419950997FFEB
:1049600003C09195819591090397CCF0A895AA94DD
:104970002E01A110EACF8091170190911801909318
:104980002A018093290180916D0190916E0190938D
:1049900028018093270189E18093250156C1BB0C32
:1049A000B4B8862D0E94CF095C01003C84E418074E
:1049B00030F425E8C21621E0D206E8F605C080EB07
:1049C000C8168DE4D806B8F6C43A22E0D20708F03B
:1049D0006CC088E9A816B10470F2C6010E94370ABB
:1049E000AC019601A8E9B7EB0E94733D9A0140E043
:1049F00050E00E942F3D19012A01C5010E94370A8B
:104A00009C01A8E9B7EB0E94733D850120E030E0EE
:104A1000A90198010E942F3D88E7C8168FE0D806AB
:104A200080F4D201C101F2E0880F991FAA1FBB1FB9
:104A3000FA95D1F7BC01CD01620F731F841F951F3A
:104A400014C088E7A8168FE0B806B0F4DA01C901EF
:104A5000E2E0880F991FAA1FBB1FEA95D1F7BC019E
:104A6000CD01620D731D841D951D25E030E040E0F1
:104A700050E00E942F3D0CC0DA01C901820D931D48
:104A8000A41DB51D9C01AD015695479537952795F9
:104A9000A4E6B0E00E94883D4B015C012CEA820E46
:104AA0002DE0921EA11CB11C78C0692D782D06172F
:104AB000170708F4B8016E01CE15DF0508F4670189
:104AC0007B016017710708F47801009114011091BF
:104AD0001501C7010E943C0A9C01D8010E94733D48
:104AE0004B015C01C7010E94370A9C0140E050E085
:104AF000C501B4010E942F3D49015A018601CC1520
:104B0000DD0508F48E01C0910D01D0910E01B801B0
:104B1000C6010E943C0A9C01DE010E94733D98017F
:104B200040E050E00E942F3D88E7E8168FE0F8064D
:104B300080F4D501C40162E0880F991FAA1FBB1F32
:104B40006A95D1F7BC01CD01620F731F841F951FB9
:104B500013C008378FE01807C0F4DA01C90132E04A
:104B6000880F991FAA1FBB1F3A95D1F7BC01CD0131
:104B7000680D791D8A1D9B1D25E030E040E050E066
:104B80000E942F3D49015A0108C0820E931EA41EA7
:104B9000B51EB694A794979487941091130114307E
:104BA00008F0E9CE7A94670C262D30E0E901CD5A61
:104BB000DE4F8881220F331F220F331FF901EA5580
:104BC000FE4F8823D9F1C080D180E280F380A50117
:104BD00094012C193D094E095F0957FF07C05095F4
:104BE0004095309521953F4F4F4F5F4FAAE0B0E081
:104BF0000E94883D24E6C20ED11CE11CF11CA701D5
:104C00009601280D391D4A1D5B1D0E942F3D232B47
:104C1000242B252B09F0AFCE133019F081E08093BF
:104C2000130182E0888380916F01E82FF0E0EA5A57
:104C3000FE4F60828F5F80936F019DCE8082918254
:104C4000A282B38281E0888396CECDB7DEB7E2E15F
:104C50000C94393ECF93C82FC09595B160FF02C028
:104C6000982B01C09C2395B994B1892B84B982E01B
:104C70000E949B0984B18C2384B985B18C2385B9AA
:104C8000CF910895A0E0B0E0E8E4F6E20C94253E70
:104C90001AE008E08FE3C82E99E0D92E07B908B9C9
:104CA00015B8C4B880E00E94CF097C0181E00E9461
:104CB000D309EC0182E00E94D3099C018091130189
:104CC000893081F488E087B914B8F0924E01E092FF
:104CD0004D01D0935001C0934F0130935201209366
:104CE00051015BC084E0E816F10440F4C430D10502
:104CF00050F42430310530F399E00BC088EEE8160B
:104D000083E0F80610F499E001C098E0C83ED34073
:104D100008F49260283E334008F4946097B9C0E0EC
:104D2000D0E0A89580E00E94C7095C0181E00E9464
:104D3000D3097C0182E00E94D30924E1A21625E078
:104D4000B20608F4389A24E1E21625E0F20608F4E7
:104D5000399A843125E0920708F43A9A26E0A2169F
:104D6000B10430F426E0E216F10410F4069738F0AE
:104D70002196C43F81E0D807A1F6D0921301E12C1F
:104D8000F12CEC16FD0631F00E9489092FEFE21A92
:104D9000F20AF7CF115009F081CFCDB7DEB7EAE0C4
:104DA0000C94413ECF92DF92EF92FF92CF932091ED
:104DB0007301309174014091750150917601C09159
:104DC00085018AE0C82ED12CE12CF12C8C2FCF5FED
:104DD000213A96E8390791E04907510538F0CA01B0
:104DE000B901A70196010E942F3DF0CF8093850164
:104DF000A0912901B0912A010E94883D28E833E161
:104E000040E050E00E942F3D2093730130937401E5
:104E10004093750150937601CF91FF90EF90DF9012
:104E2000CF900895A4E0B0E0E8E1F7E20C94223ED0
:104E30002FEF260F982F990F980F920F90934A01FA
:104E4000E82FF0E0EB5AFD4FB490262F30E0F90147
:104E5000EB5AFD4FF490F901E85AFD4F04919091FF
:104E60001301913009F4B5C2909111014FE851E05E
:104E700029E8C22E21E0D22EFA012E2F241B291759
:104E8000B8F42191261310C09F0127503109D90190
:104E90002C91281309C0D6011C962D913C911D9789
:104EA0002C3D354008F495C222E0C20ED11CE5CF5E
:104EB000162F782E08601092800110927F0181EFEA
:104EC0008093850110927301109274011092750104
:104ED00010927601D7DE88E088B907B9F4B8F5B842
:104EE000872D0E94D3096C01812F0E94D309C81A13
:104EF000D90A14B810924C0110924B0180914B01C9
:104F000090914C01843F914008F0AFC0B5B8B4B85F
:104F10000E94830914B815B80E948A09A895872DA4
:104F20000E94D3097C01EC18FD0880914B019091FF
:104F30004C018E37910528F07BE4E716F1040CF460
:104F400094C08DE2E81681E0F80654F480914B019C
:104F500090914C01019690934C0180934B01CECFE0
:104F6000C70120914B0130914C01232B09F0A3C1C3
:104F7000B5E1EB16B5E0FB060CF49DC183DE15B878
:104F80008FE087B988E088B9FB2CFF0CF4B880E487
:104F900080937B0084E580BF872D806480937C00B4
:104FA00087E180937A000E948D0910924C01109243
:104FB0004B0110928000109285001092840087E2CD
:104FC00086BB81E280936F0081E080937001F5B829
:104FD0009091130180938100953009F04CC081E0DD
:104FE00090E0072C01C0880F0A94EAF780958F7033
:104FF00087B9F89483B7817F83BF8091700188233C
:1050000089F083B7816083BF7894889583B78E7F5A
:1050100083BFF894A89580914B0190914C01803802
:105020009C4059F7789410928100E0908600F090AF
:10503000870010926F0087E980937A0014B815B842
:10504000872D0E94D30920912D0130912E01821BC2
:10505000930B0C96909388018093870180914B016C
:1050600090914C018034964040F088E087B988B92F
:1050700014B815B8AEC107B9BCCF80914B0190915F
:105080004C0190937E0180937D01F0927C01E0922F
:105090007B0184EF8093850180914B0190914C01BD
:1050A00082349105C8F060917B0170917C01809100
:1050B0007D0190917E0124E630E040E050E00E94C6
:1050C0002F3D20937B0130937C0140937D015093D1
:1050D0007E0186EF80938501A0917101B0917201EC
:1050E00020917B0130917C0140917D0150917E01A6
:1050F0000E94883D20E436E040E050E00E942F3DD1
:1051000020937B0130937C0140937D0150937E017D
:10511000209373013093740140937501509376018D
:1051200041DE80918501843F09F070C0C090730119
:10513000D0907401E0907501F090760120EAC216DB
:105140002FE0D206E104F104C0F4A70196012C542B
:105150003F4F4F4F5F4F60EA7FE080E090E00E945A
:105160002F3DC20ED31EE41EF51EC0927301D092D5
:105170007401E0927501F0927601C0907301D090B5
:105180007401E0907501F0907601C114D10471E0D2
:10519000E706F10428F4D092B701C092B60106C028
:1051A00081E090E09093B7018093B60180914A012D
:1051B00090E086599C4F0E94B03E90E0A0E0B0E0A5
:1051C0008C159D05AE05BF0568F4C81AD90AEA0A10
:1051D000FB0AC0927301D0927401E0927501F092C3
:1051E000760114C024E1C20ED11CE11CF11CC816CA
:1051F000D906EA06FB0610F40E944B1610927301C2
:10520000109274011092750110927601B4B88091D9
:10521000730190917401A0917501B0917601499745
:10522000A105B10508F421CFC12CD12C8091110129
:10523000882329F080911301853009F016CF88E08A
:105240008093130180918501909186019817C4F095
:1052500089130BCF8090730190907401A090750119
:10526000B090760140917701509178016091790179
:1052700070917A01481559056A057B0508F0F5CE4D
:1052800040917301509174016091750170917601A4
:1052900040937701509378016093790170937A017C
:1052A00080938601D0928201C09281011093830184
:1052B00070928401DACEA12CB12C20914B01309157
:1052C0004C012A153B0560F00E948409872D0E943D
:1052D000D3098C199D09A8952FEFA21AB20AEDCF18
:1052E0005701A81AB90A1A141B049CF479ECA716E2
:1052F000B1040CF0BACE28EE33E0D5010E94823D15
:1053000097010F2C000C440B550B0E942F3D690197
:1053100002C0C12CD12C80914B0190914C0101967F
:10532000A0E0B0E080937B0190937C01A0937D018D
:10533000B0937E01C7018A0D9B1D0E94C10A209176
:105340007B0130917C0140917D0150917E01DC0117
:105350000E94883D60937B0170937C0180937D0166
:1053600090937E0160937301709374018093750133
:105370009093760187EF8093850114DD209173016E
:105380003091740140917501509176018DE493E064
:1053900029833A834B835C830E94B03EA8EEB3E03E
:1053A000A81BB10987FDB39529813A814B815C81A6
:1053B0000E94923D24E630E040E050E00E942F3D04
:1053C00020937301309374014093750150937601DB
:1053D0002DCF2496EDE00C943E3E1F920F920FB617
:1053E0000F9211248F939F93B59904C080917001FF
:1053F000811109C0B59B10C08091860090918700F3
:105400008A3F910548F480914B0190914C0101969F
:1054100090934C0180934B019F918F910F900FBE01
:105420000F901F9018951F920F920FB60F92112494
:105430008F939F9310927001B09B10C08091860053
:10544000909187008A3F910548F480914B0190919B
:105450004C01019690934C0180934B019F918F9149
:105460000F900FBE0F901F901895A0E0B0E0EBE3F7
:10547000FAE20C94233E88E893E19093180180931C
:10548000170190932A01809329018EEB80932501C7
:10549000C8E0C8B988E187B90E949209C7B984E019
:1054A0000E94CF09AC018B5C9840833F9140A0F4EF
:1054B00081E0809334012091290130912A01AFEBE2
:1054C000B9E00E94733D9A0140E050E00E942F3DF8
:1054D00030931801209317018091170190911801C2
:1054E00090932A01809329018EE00E94D3098EE0D7
:1054F0000E94CF0990932E0180932D010E94450AAE
:10550000C1DB88E0F82EF8B8C9E0C7B985E185B9F4
:10551000D1E0D4B980E00E94CF098C019AE0D92E65
:10552000D7B824E0B22EB4B881E00E94CF09080FAA
:10553000191F3CE0E32EE7B840E1C42EC4B882E076
:105540000E94CF09080F191F15B8C8B9C7B9D4B937
:1055500080E00E94CF090E94370AEC01D8B8D7B882
:10556000B4B881E00E94CF090E94370AC80FD91F42
:10557000E8B8E7B8C4B882E00E94CF090E94370AB1
:10558000C80FD91FF7B8F8B814B840912901509145
:105590002A016A01CC0CDD1CC40ED51EC01AD10A2A
:1055A000CC1ADD0AE12CF12C9801A0E9BAE10E94A5
:1055B000733DA70196010E942F3D49015A01309386
:1055C0003301209332019E01A0E9BAE10E94733DAC
:1055D000A70196010E942F3D30932C0120932B01AF
:1055E0002057354E309315012093140180E7881A17
:1055F00085EE980A90920E0180920D0189E18093C8
:105600002501CDB7DEB7ECE00C943F3E0F931F931E
:10561000CF93DF93C82FD62F142F0E94560E88E108
:1056200091E00E94B50EEED16D2F8C2F0E94253B8C
:10563000C1E08091BA019091BB01A091BC01B091F1
:10564000BD01892B8A2B8B2B09F0C0E080911901B9
:1056500087FD02C0C11104C084E191E00E94B50E33
:105660008D2F0E94560EC11106C00E94590E8091C6
:1056700056010E94E008112351F0809135018F30CE
:1056800030F490E082599C4F0E94B50E02C00E94F7
:105690006D0E80E00E94970EC1111BC06091BA018F
:1056A0007091BB018091BC019091BD0103E028E4A1
:1056B00047EF0E94FB0E87E291E00E94B50E81E861
:1056C00093E00E94B83E23E046E464EF0E94E40FBA
:1056D0001AC0809156010E94E008809119018E3F06
:1056E00094F48FE391E00E94B50E6091A101709156
:1056F000A2018091A3019091A40103E028E44091CC
:1057000019010E94FB0E8091B2019091B301A0910A
:10571000B401B091B501892B8A2B8B2BF1F080E07D
:105720000E94970E6091B2017091B3018091B40113
:105730009091B50104E028E440E00E94FB0E82E273
:1057400091E00E94B50E23E040E26FEF8091B80136
:105750009091B9010E94E40F07C080E00E94730E8F
:1057600080913801811102C00E946D0EDF91CF91AE
:105770001F910F910895EF92FF920F93CF93DF93B4
:10578000D82F0E94D00C809183010E94560E8BE589
:1057900091E00E94B50E78D36091830180918401DD
:1057A0000E94000B9093800180937F01C1E08A3FAB
:1057B0009F4F08F0C0E0E0908101F0908201CC237F
:1057C00021F089E191E00E94B50E809184010E9450
:1057D000560EDD2359F0909135018FE0891B0E9410
:1057E0005C0E89E790E00E94B50E02C00E946D0E2B
:1057F0000E94230D60917701709178018091790169
:1058000090917A0104E026E4409186010E94FB0E0B
:10581000CC2369F08AE491E00E94B50E22E044E0D6
:105820006EEF80917F01909180010E94E40F0E94B1
:105830006D0E0E942B0DEF2869F083E491E00E9429
:10584000B50E22E045E26FEF8091810190918201D7
:105850000E94E40F0E946D0EDF91CF910F91FF9097
:10586000EF9008958F7021F40E94330D0C948B1CDF
:1058700008958F3021F490912F01913011F08F5FB6
:10588000089580E00895CF9384E890E00E94053663
:105890006AE080E00E94A40C88E793E00E94B50EC5
:1058A000C0E00E94E21160E082E00E94142462E005
:1058B00080E00E9414240E94D00C80916F01882304
:1058C00029F041E062E080E0A1DE12C084E890E0CF
:1058D0000E94B50E88E793E00E94B50E0E94230D4A
:1058E0008FE30E940C0E80E00E94730E0E946D0EEA
:1058F0008C2FB8DF88EE93E00E945211811105C011
:105900008C2FB7DFC82F8A3F60F20E94D70CCF914F
:1059100008950F931F93CF93DF93C0E0D8E012EF69
:105920000FE00E94E21160E082E07CDAD093130184
:1059300080918501843FE1F480917301909174011D
:10594000A0917501B091760184369105A105B1054C
:1059500078F440E060E082E00E94B1386093730127
:105960007093740180937501909376011093850173
:1059700080918501823FACF0809386018091730114
:1059800090917401A0917501B09176018093770197
:1059900090937801A0937901B0937A0181E0EBDED6
:1059A0001CC00E94D00C8DE790E00E94B50E809143
:1059B0003501902F981B892F0E945C0E89E790E09B
:1059C0000E94B50E0E94230D8FE30E940C0E0E94D0
:1059D0006D0E0E942B0D0E946D0E8C2F43DF88EE02
:1059E00093E00E945211811106C08C2F42DFC82F14
:1059F0008A3F08F496CF0E94D70CDF91CF911F9178
:105A00000F910895A8E1B0E0E8E0FDE20C941D3E9E
:105A100082E08093190180911301813009F030C236
:105A200080916F01813009F02BC220915601298BA2
:105A300034E0239FF0011124EA55FE4F408051804D
:105A40006280738049E0441642E5540661047104A3
:105A500008F016C25B8A4A8A10E08989123028F45D
:105A60000E94D608B82EA92E03C00E94D6085C0159
:105A7000EA2DF0E0E85AFD4F24918B2D90E0FC01D7
:105A8000EB5AFD4FE49115B858E058B930EF431682
:105A9000510461047104B8F410FD15C020900D018B
:105AA00030900E0140E9241A4AE1340A41E050E006
:105AB0000B2C02C0440F551F0A94E2F7CA018860FC
:105AC000822B87B908C0E4B9822F886087B92090FB
:105AD0000D0130900E0104E18B2D288F0E94CB091F
